:100000006F30F00D1300000013000000130000001B
:100010001300000013000000130000001300000094
:100020001300000013000000130000001300000084
:08003000130000007300100032
:100038000000000000000000080700000C07000096
:10004800000000002438000000000000000000004C
:1000580026380000283800000000000000000000DA
:100068001816000000000000000200000000000058
:100078002E380000303800003238000034380000D4
:1000880036380000383800003A3800003C380000A4
:100098003E38000040380000423800004438000074
:1000A80046380000483800004A3800004C38000044
:1000B8004E38000050380000523800005438000014
:1000C80056380000583800005A3800005C380000E4
:1000D8005E380000603800006238000064380000B4
:1000E80066380000683800006A3800006C38000084
:1000F8006E38000070380000723800007438000054
:1001080076380000003500007A3800001237000009
:100118007E380000803800008238000084380000F3
:1001280086380000883800008A3800008C380000C3
:100138008E38000090380000923800009438000093
:1001480096380000983800009A3800009C38000063
:100158009E380000A0380000A2380000A438000033
:10016800A6380000A8380000AA380000AC38000003
:10017800AE380000B0380000B2380000B4380000D3
:10018800B6380000B8380000BA380000BC380000A3
:10019800BE380000C0380000C2380000C438000073
:1001A800C6380000C8380000CA380000CC38000043
:1001B800CE380000D0380000D2380000D438000013
:1001C800D6380000D8380000DA380000DC380000E3
:1001D8000000000000000000000000000000000017
:1001E8000000000000000000000000000000000007
:0801F8000000000000000000FF
:10020000130181F806C216C41AC61EC822CA26CC1B
:100210002ACE2ED032D236D43AD63ED842DA46DC76
:100220004ADECEC0D2C2D6C4DAC6DEC8E2CAE6CC46
:10023000EACEEED0F2D2F6D4FAD6FED8F3220030CF
:1002400096DA9702002083A2220323A02200F3253E
:1002500010342EC09305000273A0458003A1C18213
:10026000EF20300C170300200323030103210300B8
:10027000824273901234D652739002309240A2425E
:100280003243C2435244E244724582551256A2564A
:100290003257C2575258E25872598649164AA64AEE
:1002A000364BC64B564CE64C764D865D165EA65ECA
:1002B000365FC65F13018107730020301300000012
:1002C00013000000130000001300000013000000E2
:1002D00013000000130000001300000013000000D2
:1002E00013000000130000001300000013000000C2
:1002F00013000000130000001300000013000000B2
:1003000083A2C182938202E073900234170100201D
:10031000032181F6024182403243C2435244E24407
:10032000724582551256A2563257C2575258E25859
:1003300072598649164AA64A364BC64B564CE64C6D
:10034000764D865D165EA65E365FC65FD652A1020A
:1003500073900230A24213018107828013000000D3
:100360001300000013000000130000001300000041
:100370001300000013000000130000001300000031
:100380001300000013000000130000001300000021
:100390001300000013000000130000001300000011
:1003A0001300000013000000130000001300000001
:1003B00013000000130000001300000013000000F1
:1003C00013000000130000001300000013000000E1
:1003D00013000000130000001300000013000000D1
:1003E00013000000130000001300000013000000C1
:1003F00013000000130000001300000013000000B1
:10040000F322003093F272FF130380781203B3E2F9
:100410006200711523205500130585FA10C12115BE
:10042000232005009302000063870200711523203A
:100430000500FD12D5BF71150CC1828000000000BF
:1004400000000000000000000000000000000000AC
:10045000000000000000000000000000000000009C
:10046000000000000000000000000000000000008C
:10047000000000000000000000000000000000007C
:10048000000000000000000000000000000000006C
:10049000000000000000000000000000000000005C
:1004A000000000000000000000000000000000004C
:1004B000000000000000000000000000000000003C
:1004C000000000000000000000000000000000002C
:1004D000000000000000000000000000000000001C
:1004E000000000000000397101436EC619A0397187
:1004F00041536AC866CA62CC5ECE19A039710153F5
:100500005AD056D252D44ED64AD826DA22DC06DE4B
:1005100033016140828241114AC026C222C406C60C
:100520008282B24D4101024D924C224CB24B4101AC
:10053000024B924A224AB249410102499244224462
:10054000B240410182803D432A876373C30293779F
:10055000F700BDEFADE5937606FF3D8ABA960CC372
:100560004CC30CC74CC74107E36BD7FE11E2828036
:10057000B306C3408A069702000096966780A600DD
:100580002307B700A306B7002306B700A305B700EB
:100590002305B700A304B7002304B700A303B700E3
:1005A0002303B700A302B7002302B700A301B700DB
:1005B0002301B700A300B7002300B700828093F5A2
:1005C000F50F93968500D58D93960501D58D61B76E
:1005D000939627009702000096968682E78086FA17
:1005E0009680C1171D8F3E96E374C3F8A5B7336795
:1005F000B500FD530D8B79E7B7877F7F9387F7F7BA
:1006000010419441B372F6003363F600BE92B3E238
:1006100062006395720C6318D6065041D441B372E0
:10062000F6003363F600BE92B3E262006396720A8C
:10063000631BD60410459445B372F6003363F6008D
:10064000BE92B3E26200639F7208631ED6025045F9
:10065000D445B372F6003363F600BE92B3E2620093
:10066000639872086311D60210499449B372F60078
:100670003363F600BE92B3E26200639172085105E3
:10068000D105E30FD6F61317060193970601631CF5
:10069000F7001357060193D706013305F74093750A
:1006A000F50F91E982804183C1833305F74093754B
:1006B000F50F91E182801377F70F93F7F70F33056A
:1006C000F740828010219421050585056313D6002B
:1006D00075FA3305D640828011059105E314D6FEE4
:1006E000014582802105A105E31ED6FC01458280DB
:1006F0003105B105E318D6FC014582804105C105ED
:10070000E312D6FC014582807300203001A0EFF295
:100710009FE037B5000013058540EF60A06001A0A1
:10072000EFF27FDF37B500001305C53EEF602071A3
:1007300001A0EFF25FDEEF00B071B7070020B7B5A0
:100740000000371500009387C7220947814613062A
:1007500000189385854C13052584EF10503EB7078C
:100760000020B7B5000037150000938707230D4719
:100770008146130600189385054D13052588EF1053
:10078000103CB7070020B7B500003715000093876D
:10079000C72111478146130600109385854D130527
:1007A000258CEF10D039B7070020B7B500003715FA
:1007B0000000938747221547814613060040938522
:1007C000054E130525AFEF109037B7070020B7B5DA
:1007D00000003715000093878722294781461306BA
:1007E00000209385854E130565DFEF105035B70760
:1007F0000020B7B50000371500009387072219477E
:100800008146130600309385054F1305E5C8EF10A8
:100810001033B7070020B7B50000371500009387E5
:1008200087210D478146130600109385854F1305D8
:1008300085B4EF10D030EF0010630145EF10D051B8
:10084000EDB9EFF25FCD4111EF1050682AC6B70441
:10085000002005491384842308409305401FEF10AE
:10086000A06C631A2501EF40F0590840814601460B
:100870008145EF1080119305803E6800EF20E0165F
:10088000D1BFEFF25FC94111EF1050642AC6B7041F
:10089000002005491384842308409305401FEF106E
:1008A000A068631A2501EF40306508408146014683
:1008B0008145EF10800D9305C05D6800EF20E012C8
:1008C000D1BFEFF2DFC24111EF1050602AC6B7046A
:1008D000002037B9000037BA000037BB0000B7BBB3
:1008E0000000370C00201384C42408409305800CBA
:1008F000EF10806385476318F51E0547C146130650
:10090000894281450145EF40600003A681948547F7
:100910004147894681454145EF40C0030547C146EF
:100920001306CA42814513050002EF30307E03A64C
:100930000194854741478946814513050004EF40EE
:1009400060010547C14613064B4381451305000569
:10095000EF30D07B0547C14613868B43C145014527
:10096000EF30D07A9307CC239223414785479146B5
:10097000C14513058002EF30F07D37B60000054712
:10098000C14613060644C14513058004EF301078B4
:1009900037B600000547C1461306464493050002DA
:1009A0000145EF30B07603A641904147854789461F
:1009B000930500024145EF30F07937B60000054756
:1009C000C146130686449305000213050002EF306A
:1009D000F073B707002003A6072E414785478946D5
:1009E0009305000213058003EF30D07637B6000080
:1009F0000547C1461306C64493050002130580044B
:100A0000EF30D07083A5C1901306803E854733F642
:100A1000C50241478D469305000213050006EF30DD
:100A2000707337E600000547C146130606A193051B
:100A3000000213058007EF30706D37B600000547E0
:100A4000C14613060645930500030145EF30106CBF
:100A500003A64180414785477D168546133616001B
:100A6000930500034145EF30F06E37B600000547AF
:100A7000C146130646459305000313050002EF30F7
:100A8000F06803A68180414785477D168546133669
:100A900016009305000313050003EF30B06B37B663
:100AA00000000547C146130686459305000313055C
:100AB0000004EF30B065B707002003A6071E854687
:100AC000930500037D1613361600130500058547B0
:100AD0004147EF303068EF307043084081460146AF
:100AE0008145EF00906A9305C05D6800EF10F06FDC
:100AF000DDBBEFF2BFA04111EF10503D85642AC667
:100B00000144B7090020094AB70A0020938484BB36
:100B1000138989248327090089C7EF40405219E5CA
:100B20000144A6856800EF10506CDDB70504E35A58
:100B30008AFE03A54A24232009007DD1814601466F
:100B40008145EF009064E9BFEFF27F9A37040020FF
:100B5000411122898327442CB1C39164814B014DFB
:100B6000814C0144938404F8B7090020370A00201F
:100B7000294B0325492C7D569305F100EF10602485
:100B80008547E318F5FE6306A40211CC8946630687
:100B9000D4028D476307F4020144E1BF130520032B
:100BA000EF10D07145BF80871304B4F513341400DF
:100BB000C9B7834CF10009446DBF034DF1000D44EA
:100BC0004DBF3387AC019C87130757FA1377F7079C
:100BD0000144E390E7FA93977C001377FD07E58FD4
:100BE000D98F8607154733D7E7021386C9231AA280
:100BF0001307E00A6366F70023A20192814B95BFB9
:100C000013076017636CF70023A2D1925E84E3821E
:100C10000BF693B7C71293CB1700BDBF1307E023A2
:100C20006364F704114723A2E192E3970BF61307DD
:100C3000B0170144E37FF7F2371401400546916590
:100C400013050440EF20B07A93070A1E05470146BA
:100C500089651305044098C3EF207079938741801C
:100C600023A00700854B0DBF1307D02E6368F70044
:100C7000194723A2E192E3810BFC61BF1307104ED9
:100C80006364F7002147F5B723A26193EDB7EFF254
:100C90001F861305007D9D6405698969EF10106248
:100CA0000144B70B0020370C002093840453130930
:100CB00089389389097193878B249C43138B8B24E8
:100CC000930A4C24BDE7EF40401A09C903A50A0066
:100CD000CE8509ED4E85EF10705EF1BFEF402030FC
:100CE0002A8A11C903A50A0009C5CA85EF10C023C5
:100CF000D9B74A85CDB703A50A0085472320FB0055
:100D000001C58145EF10402203A50A000DC5A68547
:100D1000EF10802183270B005284D1DFEF40401376
:100D20002A8451D90544E3188AF823200B00014492
:100D300059B7228AD1BF2685EF105058E1BFEFF294
:100D4000EFFB2A8AAE89EF6080182A8913848155C7
:100D5000930520022285EF60001619E1814495A0D9
:100D6000130415004A86D2852285EF502050AA84AC
:100D700065F1B30724010387070093072002E319F5
:100D8000F7FC130519009305A0032295EF60A0124C
:100D90000DC91304150013070002A5470309040039
:100DA0006304E9026302F902B7B5000011469385B6
:100DB00085462285EF60C01211E9854723A0F9001E
:100DC000854426856FF0CFF60504C9BFB7B500008E
:100DD0001546938505472285EF60801001E523A025
:100DE0000900F9BF93071003E309F9FC9307000317
:100DF000E319F9FCEDB7EFF20FEFB709002001118D
:100E000013848973138B819537BD0000B7040020CC
:100E10000549A68C03A5842C7D569305B101EF00EE
:100E2000507AE31925FF938D81558346B101370A26
:100E300000201306EA2335471C22130AEA236385A0
:100E4000E6002947639DE62CB70A0020938A0A240E
:100E5000639A072283D70A0063860722A29723801A
:100E6000070003898973630F0920B7B5000019468D
:100E7000938585472285EF60A006AA84631A051A28
:100E80009305B0072285EF60000315C55A871386C6
:100E90008195814601498145130820029308B007D6
:100EA0001303D007130EC005930EF03FB3072501BF
:100EB0008387070091E713858973EF307063D9A2A8
:100EC000639707136384C50193C61600E305D9FF32
:100ED0001CA205090506BE85F1F8B3072B01238086
:100EE0000700A14493072002E3F724FD030607004F
:100EF00093061700631BF6123685194693050D48B5
:100F000036C43AC6EF508036A24693072002631ECD
:100F100005103247030777006319F7109307B007EE
:100F200033089B0003070800631DF70C13868155E7
:100F300081468147814593082002130EB007930E26
:100F4000D007130FC0051303F0173307F80003078A
:100F50000700631C170B6384E50113451500E38C40
:100F600067F418A28507DDEAEE9737B50000238005
:100F700007006C0813058548D93311CD7246371523
:100F8000014089653336C00013050540EF20304627
:100F9000724723A2E18037B500006C081305C548ED
:100FA000793B11CD72463715014085653336C00057
:100FB00013050540EF20B043724723A4E18037B505
:100FC00000006C08130505499D3BE30605EE7246DB
:100FD0003715014091653336C00013050540EF20F9
:100FE00010417247B707002023A0E71EE9B5E39F31
:100FF00006EC639417018504D1BDE39967ECFD14F9
:10100000F1B58504E3EE24F17DB531F96314C70130
:101010008506B1B7E315D7F5FD1691B7BA853387C5
:1010200097000506E36327F379B5850436876DBD20
:10103000B7D50000938505342285230E0100EFF01B
:101040000FDB854705C5B7B5000093854549228567
:10105000EFF0EFD9894719C9B7B500002946938544
:10106000C5492285EF50D0670DED8D47230EF10065
:10107000B707002003A5C72D29C9814601466C0882
:10108000EF00B01023900A0023000A0003A58C2C67
:1010900001469305B101EF00D0528547E307F5D82B
:1010A000B5B3B7B5000029469385854A2285EF5030
:1010B000306345DD9307E0036319F90083071400EB
:1010C00093F7F7FD99E3914755B7B70700201387CA
:1010D0008724184393848724E30F07DCB7B5000007
:1010E0009385454B13858973EF50106219E9B7B5A5
:1010F00000009385C54B13858973EF50F060E30CB6
:1011000005DAB707002003A5472423A00400E30461
:1011100005DA814601468145EF00300769BBBDF71E
:10112000B7070020938707249A239305E07F63E89D
:10113000E50013061700229792A314A381BF054769
:1011400018A22390070099B7EFF2EFBC0545EF0016
:10115000B01CB707002023A6A7241145EF00D01B21
:10116000B707002023A8A7240545EF00F01AB7070A
:10117000002023ACA7220D4681450545EF00C0792C
:10118000B707002023A2A724EF30102DB7070020B7
:10119000B7B5000037050000938747230547814610
:1011A000130600109385C54513052573EF1020190C
:1011B000EF10A0476FF06FB8EFF2EFB50945EF20E1
:1011C000B02313050009EF20C05BEF307021EF3032
:1011D000901FEF20203D716513050520EF20A0280A
:1011E000096513050558EF20A047EF30402FEF3079
:1011F000701CEF30607DEF40E023EF30100FEF40C8
:10120000202F993701456FF04FB3B717024098432D
:10121000B706FFF841111367170098C3D843370684
:101220000200758FD8C39843B706F7FEFD16758F79
:1012300098C39843B706FCFFFD16758F98C3D84333
:10124000B70681FFFD16758FD8C39843B70600EC2B
:10125000FD16758F98C33707FF0098C723A60702AE
:1012600002C402C69843C166558F98C3B7160240A0
:1012700005679C42F18F3EC6A24785073EC4B24730
:1012800081E7A247E397E7FEB71702409C43139715
:10129000E7006356070685473EC632478547631E0B
:1012A000F704B7170240D843B706C1FFFD16D8C3ED
:1012B000D843D8C3D84313670740D8C3D843758FE2
:1012C000D8C3D843C166558FD8C39843B706000129
:1012D000558F98C3984393166700E3DD06FED84305
:1012E000B7160240719BD8C3D84313672700D8C3F1
:1012F0002147DC42B18BE39EE7FE4101828002C6BA
:1013000069BFB70700209387C7269843636FA7027A
:10131000D043B386C7006316D50054413E85B296CC
:10132000D4C35041B306C500631CD700B7060020E4
:1013300083A646256306D70054431843B29654C18A
:1013400018C16303F50088C38280BA877DBFEFF2BE
:10135000EF9A41112AC6EF106036B706002083A726
:1013600046253706002093864625130686253245F6
:10137000A9EF371700209307870B93F5F7001307A2
:10138000870B81C51387F700419BB7050020938524
:10139000C52623A2050098C19D659385057FAE975C
:1013A000C19B23A2070023A00700B385E7409CC28E
:1013B0001CC3B707002023A0B726B707002023AE21
:1013C000B724B70700804CC31CC2032A0600B377BA
:1013D000AA0091CBEF10E04AEFF08FB4814426854C
:1013E00041016FF0EF949307F5FF3957E364F7FE7F
:1013F0009307050113F7F70019C713F707FF410714
:10140000E3FAE7FCBA87370700200329C7259309C9
:10141000C725E361F9FC370700200324C72613071B
:10142000C72650406374F6000C40A1E59442E38364
:1014300086FA1440044314C33307F64093060002AF
:1014400063FFE6023305F4009376F50095C6A167C5
:10145000938707807390073037B6000037B50000D8
:10146000130606509305F00C1305455BEF50900BE7
:1014700001A022872E8475B758C15CC059355840E9
:10148000B7060020938606269042B307E94023A0C2
:10149000F90063F3C7009CC2B70700203367EA0076
:1014A0009387472658C09843C104232004000507AA
:1014B00098C3EF10003D8DD093F7F4008DD3A16752
:1014C000938707807390073037B6000037B5000068
:1014D00013060650930500111305455BEF50900469
:1014E00001A055C1EFF22F83B7070020032745FF66
:1014F00083A787252A84B376F7009DE2A1679387A7
:1015000007807390073037B6000037B50000130628
:101510000650930540121305455BEF50B00001A043
:10152000832605FF9DC2A1679387078073900730CC
:1015300037B6000037B50000130606509305501269
:101540001305455BEF50007E01A093C7F7FFF98FAD
:10155000232AF5FEEF108016B70700209387C725D2
:101560009443032744FF130504FF369798C3513B68
:10157000B7070020938787269843050798C3EF1085
:1015800040306FE09FFB82808280EFE2DFF8411104
:1015900002C6F32750303EC6B2470D478D8B638499
:1015A000E702A167938707807390073037B6000082
:1015B00037B500001306865D9305600B1305455B88
:1015C000EF50407601A0B707012093870700BD8B3D
:1015D0009DC3A167938707807390073037B60000DB
:1015E00037B500001306865D9305B00B1305455B08
:1015F000EF50407301A0493FB7E700E0056723A023
:10160000E710116723A0E71023A80180EFE05FCF68
:10161000014541016FE07FF273110134A1679387A7
:10162000078073900730B7F700E023A20700EF10A0
:10163000800A11C5B7E700E0116723A0E720A16782
:1016400093878788739007307311013473002030BB
:10165000A167938707807390073093870181984330
:10166000050798C38280138701811C438DE7EFE251
:101670009FEAA167938707807390073037B6000011
:1016800037B500001306865D930520101305455BF2
:10169000EF50406901A0FD171CC391E7A167938734
:1016A0008788739007308280216513050580731544
:1016B00005308280731005308280930785007D5746
:1016C0005CC118C55CC51CC9232005008280232885
:1016D000050082805C419847DCC198C598474CC39F
:1016E0008CC71C4188C985071CC182809841FD5662
:1016F00093078500631ED7001C49D843D8C10CC787
:101700009CC5CCC31C4188C985071CC18280B68793
:10171000D4439042E37DC7FECDB7544118451C49E0
:1017200098C654C3D4436393A600D8C398432328D0
:1017300005007D1798C388438280EFE2DFDD411109
:101740002AC639373245005D393F1335140041014F
:101750006FE0BFDEEFE23FDC32893041045D2A8476
:1017600009EE1C41014591E70844EF10207F232436
:101770000400850404DC6FE05FDC6310090248416B
:10178000EF4010315C4038400145BA9718445CC0C6
:10179000E3E1E7FE1C405CC0E9BF4845EF40502F45
:1017A0003C4058441440B307F0403E9758C463751A
:1017B000D7001844BA975CC489470145E31BF9FA7E
:1017C000CDD8FD147DB7304115C2EFE2DFD45845C6
:1017D0001445AA87329758C56364D700184158C585
:1017E0002E85CC47EF40D02A6FE03FD58280EFE2D4
:1017F0009FD22A84B13D8344540413094402E20475
:10180000E18463459002FD57A302F404A93D8935A4
:101810008344440413090401E204E1846344900214
:10182000FD572302F40481356FE03FD15C50E1DFC6
:101830004A85EF10004819C1EF104064FD14E2041E
:10184000E184C1B71C48E9DF4A85EF10804619C121
:10185000EF10C062FD14E204E184C9B7EFE2BFCB30
:1018600041111DE1A167938707807390073037B658
:10187000000037B500001306C66893050011130574
:10188000455BEF50204A01A05C5D2EC62A84BDC393
:101890003841B3B7E702B9EF653B3040585C1440BC
:1018A000232C0402B307E602B24554C03387F60086
:1018B000918FB6975CC4FD572302F40418C4A302A9
:1018C000F40495E11C4899CB13050401EF10603E28
:1018D00011C5B7E700E0116723A0E720693305458C
:1018E00041016FE09FC513050401C13B130544028C
:1018F000E933EDB7A167938707807390073037B658
:10190000000037B500001306C66893055014130590
:10191000455BEF50204101A0EFE2FFBF411121C51F
:10192000B3B7A502AA84A1E33305B5029307F0FA81
:1019300063EBA7021305050532892EC6EFF03FA120
:101940002A8411CDB245AA8799C1930705052CC0F9
:101950001CC044DC854522851137230624052285D9
:1019600041016FE09FBDA1679387078073900730A7
:1019700037B6000037B500001306C6689305601C33
:101980001305455BEF50003A01A0EFE25FB601118D
:1019900032C61DE1A167938707807390073037B681
:1019A000000037B500001306C6689305E032130542
:1019B000455BEF50203701A02A842E89B6848DE53F
:1019C0003C419DC3A167938707807390073037B66A
:1019D000000037B500001306C6689305F032130502
:1019E000455BEF50203401A089476398F402585CAE
:1019F00085476304F702A1679387078073900730D8
:101A000037B6000037B500001306C66893050033EB
:101A10001305455BEF50003101A0EF10804715E53D
:101A2000B247014C85C7A167938707807390073041
:101A300037B6000037B500001306C668930530338B
:101A40001305455BEF50002E01A0014C094BFD59D9
:101A5000930B040137EA00E0916AADA0B24781E739
:101A60001931014549A863150C002808EF102033EF
:101A7000DD3EEF00B044E93E83474404E207E187DE
:101A8000639437012302040483475404E207E18787
:101A900063943701A3020404F9366C002808EF10A0
:101AA000603135E57536185C5C5C6319F704653E9A
:101AB000B2455E85EF1000142285153BEF00705C87
:101AC00021C5054C7136185C5C5C6364F700E397D4
:101AD00064F92686CA852285B5395C5089C7130505
:101AE0004402EF10001D11C5B7E700E0116723A005
:101AF000E720953E054505616FE0FFA2AD362285E2
:101B0000FD31EF00105875BF23205A215DBF22859B
:101B1000F939EF001057B1B7EFE2FF9F2A868145F0
:101B20000545DD3B2A8419C923240500232005002F
:101B300023260500814601468145813D22856FE0CF
:101B4000DF9FEFE25F9D1DE1A167938707807390A0
:101B5000073037B6000037B500001306C668930596
:101B600030281305455BEF50E01B01A003298500D9
:101B70002A84EF1060318144631CA9005C448544D1
:101B8000FD175CC491E78146014681452285F53BFE
:101B900026856FE09F9AEFE27F9641111DE1A167D4
:101BA000938707807390073037B6000037B5000081
:101BB0001306C668930520401305455BEF50801659
:101BC00001A02A84B2898DE53C419DC3A16793871A
:101BD00007807390073037B6000037B50000130652
:101BE000C668930530401305455BEF50A01301A074
:101BF00089476398F602585C85476304F702A1673A
:101C0000938707807390073037B6000037B5000020
:101C10001306C668930540401305455BEF508010DE
:101C200001A036C62EC4EFF03FA8185C5C5C2A8A7F
:101C3000A245B2466366F700894781446393F60282
:101C4000834454041C5C3686228513998401EFF08A
:101C50007FB013598941FD576317F9025C5089EB36
:101C600085445285EFF01FA5268541016FE05F8C0A
:101C700013054402EF10E00365D5E38309FE8547B1
:101C800023A0F900F1BF9307F0076314F902A167DD
:101C9000938707807390073037B6000037B5000090
:101CA0001306C6689305D0481305455BEF508007BF
:101CB00001A08504E204E184A302940455B7EFE295
:101CC0009F851DE1A167938707807390073037B622
:101CD000000037B500001306C6689305D04A130507
:101CE000455BEF50200401A03C412A849DC3A167BD
:101CF000938707807390073037B6000037B5000030
:101D00001306C6689305104B1305455BEF50800121
:101D100001A01C41AE848DE71C459DC3A16793873C
:101D200007807390073037B6000037B50000130600
:101D3000C6689305604B1305455BEF40B07E01A07C
:101D4000EFF09F96185C5C5C2A89637AF7068347FC
:101D50005404050718DC93968701E1867D57639448
:101D6000E6025C5081EB05444A85EFF0BF94228582
:101D70006FE0AFFC13054402EF00B0736DD5E5D4FE
:101D800085479CC0CDB71307F0076394E602A167AF
:101D9000938707807390073037B6000037B500008F
:101DA0001306C668930550531305455BEF409077C3
:101DB00001A08507E207E187A302F4046DB701449F
:101DC00065B7EFE2CFF2011132C61DE1A16793873B
:101DD00007807390073037B6000037B50000130650
:101DE000C668930510551305455BEF40B07301A01D
:101DF0002A84AE898DE53C419DC3A1679387078006
:101E00007390073037B6000037B500001306C66878
:101E1000930550551305455BEF40D07001A0EF10BE
:101E2000400715E5B247014985C7A1679387078039
:101E30007390073037B6000037B500001306C66848
:101E40009305A0551305455BEF40D06D01A00149F6
:101E50007D5A930A440237EB00E0916B95A8B24794
:101E600089E7EFF05F80014569A86315090028083C
:101E7000EF00F072EFF02FFFEF005004EFF04FFD96
:101E800083474404E207E187639447012302040483
:101E900083475404E207E18763944701A3020404E3
:101EA000EFF06FFC6C002808EF00D07025E522856C
:101EB000EFF0BF8831C9B2455685EF00B053228597
:101EC000EFF0FF92EF00F01B19E123207B21054981
:101ED000EFF00FF8045CC1D4CE852285FD14EFF03D
:101EE0009F8E04DC1C4899CB13050401EF00705C45
:101EF00011C5B7E700E0116723A0E720EFF0AFF6C8
:101F0000054505616FE02FE22285EFF05F8EEF005F
:101F1000501775BF2285EFF09F8DEF009016228538
:101F2000EFF0BF814DD581B7EFE24FDD01112EC635
:101F30001DE1A167938707807390073037B60000D3
:101F400037B500001306C6689305305E1305455B80
:101F5000EF40505D01A03C412A849DC3A167938757
:101F600007807390073037B6000037B500001306BE
:101F7000C6689305705E1305455BEF40B05A01A03B
:101F8000EF0030710DE5B2479DC3A16793870780CD
:101F90007390073037B6000037B500001306C668E7
:101FA0009305C05E1305455BEF40D05701A0814407
:101FB0000149FD59130A4402B7EA00E0116B75A00C
:101FC000B2479DE79DC0A167938707807390073054
:101FD00037B6000037B500001306C66893052063C6
:101FE0001305455BEF40105401A0EFF0CFE745A883
:101FF000631509002808EF00905AEFF0CFE6EF00D4
:10200000E06BEFF0EFE483474404E207E187639479
:1020100037012302040483475404E207E1876394F1
:102020003701A3020404EFF00FE46C002808EF006E
:10203000705841E12285EFF04FF035C51C4089EB27
:10204000EFF00FE10844EF009066AA84EFF0AFE1F3
:10205000B2455285EF00103A2285EFF04FF9EF00BC
:10206000500219E123A06A210549EFF06FDE1C5CE4
:10207000A1DBFD171CDC1C4081E7EF10200908C420
:102080001C4899CB13050401EF00B04211C5B7E716
:1020900000E0116723A0E720EFF0EFDC8544268500
:1020A00005616FE0EFC82285EFF06FF4EF00607D0F
:1020B00065BF2285EFF0AFF3EF00A07C2285EFF043
:1020C000CFE75DD1E9DCEFF0AFD85C50814589C73F
:1020D0001C58BD459C439D8D08448144EF00B0745D
:1020E000EFF06FD86DBFEFE20FC341111DE1A167A3
:1020F000938707807390073037B6000037B500002C
:102100001306C6689305B02B1305455BEF4090415D
:1021100001A004452EC62A84EF001057B2456399EA
:10212000A4005C44054585075CC441016FE0EFC035
:102130002285DD3B7DD95C4485075CC4FDB715E590
:10214000EFE26FBDA167938707807390073037B6C2
:102150000000856537B500001306C668938585AC19
:102160001305455BEF40103C01A09DCD3796002044
:102170009306868B814701471306868B214883A8E7
:1021800046006398A80093173700B2978CC3C8C362
:1021900021A891E783A8060063930800B687050786
:1021A000A106E31E07FDFDF38280EFE2CFB64111E9
:1021B0002A842EC632C4EFF0AFC9834744047D574A
:1021C0002246E207E187B2456394E7002302040454
:1021D000834754047D57E207E1876394E700A30235
:1021E000040432C62EC4EFF00FC81C5CA245324670
:1021F00089E713054402EF0070242285EFF02FDFFA
:1022000041016FE08FB337070020130787271C4376
:102210009443B70700209387872981E67D5798C3A9
:102220008280184358471843DDBFEFE22FAD3709CE
:102230000020B70700209304492783A9872A2A840E
:102240009C4088404111A38C070411052EC6EFF075
:10225000CFCC7D5793074927B245631CE40295C94B
:10226000B7970020938707A69440D84398C6104795
:102270009440D0C694401047910654C294409106B1
:1022800014C798405CCB9843050798C341016FE0A1
:102290002FAA98434E9440C3637B34013707002034
:1022A0000325C7278C439105EFF04FC4C5B7370707
:1022B0000020032587278C439105EFF02FC3B70734
:1022C0000020938787299843E372E4FC80C37DBF95
:1022D000EFE2CFA237940020B7090020130444A7EF
:1022E000370A0020B79A0020938449289C4089EF40
:1022F00093878A8F98438547E3F8E7FEB7E700E0C6
:10230000116723A0E720CDB7EFF08FB45C4403A999
:10231000C70013054900EFF04FC013070A281C43FC
:10232000FD171CC39C40FD179CC0EFF0CFB30325E5
:102330000903EFF00F9B4A85EFF0AF9A75B7EFE214
:102340000F9B931426002A8B26852E8AB68B3A89FA
:10235000BE8AEFE0DFFF05CDAA891305C005EFE0D7
:102360001FFF2A8415C12328350326864E85930531
:10237000500AEFE04F9D814783290403C146631A49
:102380000A00230A040225A04E85EFF08F957D55A3
:1023900075A23307FA00030707003306F400230A87
:1023A000E60201C78507E396D7FEA3010404B947F7
:1023B00063F42703A167938707807390073037B6CC
:1023C000000037B500001306067393057039130536
:1023D000455BEF40301501A0130A44002326240377
:1023E00023262405528523280404EFF04FAE13055D
:1023F0008401EFF0CFADBD47F11433892741CE946E
:1024000000C8232C240140D0230A0404A30A040496
:10241000230B0404A30B0404230C0404A30C0404E2
:102420005E86DA8513F504FFEFD09FFD08C0638454
:102430000A0023A08A00EFF0AFA1B707002093871E
:1024400007289843B7040020B7990020050798C3D0
:10245000138744271843938444271389898F631172
:10246000070E80C0984385476316F7069389898FC6
:10247000930AC9124E85D109EFF02FA4E39C3AFFCD
:1024800037950020930A45A2130545A2EFF0EFA26D
:1024900037950020930985A3130585A3EFF0EFA1DD
:1024A000379500201305C5A4EFF02FA13795002024
:1024B000130545A7EFF06FA037950020130505A67B
:1024C000EFF0AF9FB707002023AC5727B7070020D6
:1024D00023AE3727370700201307C7281C4385077B
:1024E0001CC337070020130707297CC014435C5422
:1024F00063F3F6001CC35147B387E702CA97D8437A
:10250000144718C454C4144723A246012324470186
:1025100098435CC8050798C3EFF0EF94B707002015
:1025200083A7472A054599CB9C40D8575C546377CD
:10253000F700B7E700E0116723A0E7206FD0BFFEE8
:10254000B707002083A7472AD1F79C40D8575C548F
:10255000E3E2E7F880C0BDBFEFD2FFFB2A84B704F7
:102560000020EFF0EF8E9384442711E080401309A0
:1025700044004A85EFF06F9A1C5489C71305840103
:10258000EFF0AF99B70700209387C7289843050756
:1025900098C39C40639A870637950020CA85130527
:1025A00045A7EFF02F93B70700209387472898435C
:1025B000050798C3EFF02F8B9C406388870008586D
:1025C000EFE03FF22285EFE0DFF1B707002083A7BD
:1025D000472AB1CB9C4063988704B707002083A7A4
:1025E00087288DCFA167938707807390073037B610
:1025F000000037B50000130606739305C04D1305A0
:10260000455BEF40207201A0B707002093870728A1
:1026100098437D1798C3EFF01FBF69BFB7E700E08D
:10262000116723A0E7206FD05FF1EFD2DFEEB7078D
:102630000020B7B5000037250000938747290147E0
:102640008146130600089385457D1305052DEFF09F
:102650001FCF0544631E8502EF00F05A631A8502FE
:10266000A1679387078073900730B70700207D57D5
:1026700023ACE728B707002023A2A72AB70700202A
:1026800023A4072AEFE07FF083A741816FD0FFEA00
:10269000FD57E31BF5FEA167938707807390073012
:1026A00037B60000856537B50000130606739385BD
:1026B00005841305455BEF40E06601A0B7070020E5
:1026C000938787289843050798C38280B70700201F
:1026D00003A5872A8280B707002083A787286399EC
:1026E0000718EFD25FE3B70700209387872A80435C
:1026F000050480C321ECB707002093878727984300
:10270000184305C7A167938707807390073037B6D2
:102710000000856537B5000013060673938575AC18
:102720001305455BEF40006001A037070020130749
:10273000C7279443104390C3B707002014C393875F
:10274000C7299843050798C3EFF0FFAB3706002071
:10275000930786299C4337970020B705002013066E
:1027600086291307878F9385452701456375F402F2
:102770009C41D146DC57B387D7023E971843854723
:1027800063F3E7000545B707002083A7C72A91C375
:1027900005456FD09FDA370E0020B70E0020514F4D
:1027A00093078E279443944281E6FD571CC2C9B714
:1027B0009C43DC47DC47D4436374D40014C24DBF50
:1027C00083A8870003A8C700D44B1383470023A422
:1027D00008012322180183A846006394680023A2FD
:1027E000060103A8060023AA07007D1823A00601FE
:1027F000945795CA03A8C70183A8070283AF460070
:102800002324180183A8070223A208011388870143
:1028100063940F0123A2160103A8060023A4070254
:102820007D1823A0060193860E2903A8C70283A85A
:10283000060063F4080123A00601B306E803BA9674
:1028400083A8460083AF880023A4170123A6F701BD
:1028500083AF880023A26F0023A46800D4CB9C42DE
:1028600085079CC29C41DC57E36CF8F205450DBF1F
:10287000B70700209387072A98430145050798C3A7
:102880008280EFD2BFC737040020130484281C4085
:10289000411185E7A167938707807390073037B6AA
:1028A0000000856537B50000130606739385358BE8
:1028B0001305455BEF40004701A0EFE07FD91C40C6
:1028C000FD171CC01C4089CB01452AC6EFE0BFD9CB
:1028D000324541016FD0DFC5B707002083A7072825
:1028E000E5D7B79600203795002081479386C6A488
:1028F000370F00201305858FD14837030020370E8E
:102900000020854E59A8DC46DC47CC4F90539857A1
:1029100090C503A807022322B80003284700938527
:1029200087016313B80050C3104323A407027D1628
:1029300010C38C47D047D84B1388470090C54CC272
:102940004C436393050150C3104323AA07007D162F
:1029500010C313070F29D0570C4363F3C50010C3EE
:10296000330716032A974C4383AF85008CC723A6F1
:10297000F70183AF850023A20F0123A405010C43B7
:10298000D8CB85050CC313074327184358576366F4
:10299000E6001307CE2A2320D70198422DF799C3CA
:1029A000EFF07F86B70700201387072A04431384BC
:1029B000072A99CC370900208549EFF0DFD109C5F6
:1029C0009307C92A23A03701FD14E5F8232004004A
:1029D000B707002083A7C72AE38807EEB7E700E020
:1029E000116723A0E7200545CDB5EFD2DFB2411135
:1029F0001DE1A167938707807390073037B6000009
:102A000037B50000130606739305104F1305455B99
:102A1000EF40403101A09DE1A1679387078073904B
:102A2000073037B6000037B500001306067393056C
:102A3000204F1305455BEF40E02E01A0B7070020B3
:102A400083A787289DC3A16793870780739007306A
:102A500037B6000037B50000130606739305304FF4
:102A60001305455BEF40002C01A02A842EC6EFF031
:102A7000FFC41840B245B707002003A5872AB30753
:102A8000B7001CC06371E50263E1E7020144EFF0A7
:102A90005FDF11E5B7E700E0116723A0E72022859B
:102AA00041016FD09FA963E4E700E371F5FE814522
:102AB0003385A740EFF06FF70544D1BF19E5B7E7BD
:102AC00000E0116723A0E7208280EFD2DFA4B707E0
:102AD000002083A7872841119DC3A16793870780A2
:102AE0007390073037B6000037B500001306067341
:102AF000930590541305455BEF40C02201A02AC600
:102B0000EFF0DFBB32458145EFF02FF2EFF07FD7DA
:102B100011E5B7E700E0116723A0E72041016FD07E
:102B2000DFA1B707002003A78728B70700209387F6
:102B3000C72A01C7054798C38280EFD2DF9D3704BB
:102B4000002023A00700930744279C4337A7A5A58F
:102B50001307575A9C5B130444279043631BE600FA
:102B6000D4436398C60098476315D700DC47638851
:102B7000E70008400C4093854503EFD05FB9B707E5
:102B8000002013870729184313860729B7970020C9
:102B90009387878F5148B3060703B385D7008841D1
:102BA00005C5C841A106BE964841C8C16314D500F9
:102BB0005441D4C1D146B306D702B697DC43DC47B3
:102BC0001CC018C26FD07F9705E7A1679387078065
:102BD0007390073037B60000856537B500001306DF
:102BE0000673938525C01305455BEF40A01301A034
:102BF0007D1755B7EFD23F9205E5A1679387078010
:102C00007390073037B60000856537B500001306AE
:102C100006739385C5C11305455BEF40A01001A065
:102C2000B70700202E8483A54727E105EFE01FACFE
:102C300085452285EFF06FDF6FD03F90EFD2BF8DDB
:102C40002A8705E5A167938707807390073037B619
:102C50000000856537B5000013060673938525C50A
:102C60001305455BEF40000C01A0B70700209387D8
:102C7000472754432E858C4303A88600D4CD8C432C
:102C800023A0050303A807008C46610823A20501C1
:102C900003A807009C43610823A4060198D71C439E
:102CA00085071CC311C27D55B285EFF00FD86FD0D8
:102CB000DF885C45DC4795E7EFD2FF85A167938706
:102CC00007807390073037B60000856537B5000080
:102CD00013060673938525C81305455BEF408004F2
:102CE00001A0D04F945398579385870114C6D0C242
:102CF00050436313B60054C3144323A40702FD16C4
:102D000014C33707002003278728D45725EF8C47A3
:102D1000D047D84B90C5D04748434CC29385470015
:102D20006313B50050C3104323AA07007D1610C3D8
:102D3000370700201307072910436373D60014C315
:102D400051473386E602379700201307878F329763
:102D50005043084690C7C8C708464CC10CC6D8CBDC
:102D60001C43014585071CC3B707002083A74727DD
:102D7000DC5763F8D700B7070020054723A6E72AEA
:102D800005458280379700201307C7A450430846A3
:102D9000D0CF88D308464CC10CC698D7D1B7B70757
:102DA000002083A7C7291CC1B707002083A7872A53
:102DB0005CC18280EFD22FF6411105E5A1679387B0
:102DC00007807390073037B60000856537B500007F
:102DD000130606739385D5CF1305455BEF309074CA
:102DE00001A085E5A167938707807390073037B608
:102DF0000000856537B50000130606739385E5CF9F
:102E00001305455BEF30107201A02EC62AC4EFE017
:102E10003F8437070020B70700201307472783A602
:102E2000872A1C432245B24583C7970599CB1C438B
:102E3000A38C07040544EFE01F83228541016FD076
:102E4000CFEF9C417D570144E387E7FE3706002022
:102E50000326C6290328050058416307C80063E517
:102E6000E60023A00500F9B73386E640E37BF6FED3
:102E7000958FBA979CC12537014475BFB7070020CD
:102E8000054723A6E72A8280B707002003A5472726
:102E90008280B707002083A7472A054581CBB70763
:102EA000002003A5872813351500060582804DC52F
:102EB000EFD2CFE4370900209307492794435855B0
:102EC00013094927D4566373D7081C4D63C80700FC
:102ED00083270900D457BD47958F1CCD5146330732
:102EE000C702B79700209386878F9384878F369782
:102EF00054496398E604930945002A844E85EFE01F
:102F0000DF81832709003707002013070729DC57D3
:102F100014435CD463F3F6001CC35147B387E70244
:102F2000A697D843144718C454C4144723A23601A3
:102F30002324370198435CC8050798C305456FD023
:102F40002FDF83270900DC575CD5CDBF9C43684544
:102F5000DC573335F500E5B70145828011E50145C1
:102F6000828001456FD06FDDEFD2EFDAB707002026
:102F700083A747272A846385A702A16793870780D1
:102F80007390073037B60000856537B5000013062B
:102F900006739385F5041305455BEF30B05801A027
:102FA000BC4B85E7A167938707807390073037B6DE
:102FB0000000856537B50000130606739385050587
:102FC0001305455BEF30105601A054557845FD17A9
:102FD0003CC9E388E6F8D1F7930445002685EFE085
:102FE000CFF37C443D471D8F18CC370700201307D3
:102FF000072914435CD463F3F6001CC3514733879D
:10300000E702B79700209387878F0545BA97D84383
:10301000144718C454C41447C4C204C798435CC8B6
:10302000050798C381B775C1EFD2EFCE34492A8422
:1030300085E6A167938707807390073037B6000055
:10304000856537B50000130606739385F5091305EA
:10305000455BEF30304D01A07C4563F3B700AE8790
:1030600058546302F70A0546639FC608B706002056
:1030700083A6462763958602A1679387078073908E
:10308000073037B60000856537B5000013060673B4
:103090009385A50B1305455BEF30D04801A0144C78
:1030A0005CD463C60600BD46B387F6401CCC5146CF
:1030B0003307C702B79700209386878F9384878F43
:1030C000369754486391E604130944004A85EFE0BB
:1030D000CFE437070020130707295C54144363F338
:1030E000F6001CC35147B387E702A697D84314479D
:1030F00018C454C4144723A226012324270198434B
:103100005CC8050798C36FD04FC38280B707002003
:103110001387472718439387472709C79443B84A1B
:103120000507B8CA88438280EFD2EFBE370400207B
:10313000EFE00FD21304C42B1C40B1E737950020F9
:10314000130985A8130585A8EFE02FD73795002030
:103150009304C5A91305C5A9EFE02FD6B707002032
:1031600023A8272B0146B7070020C145154523AAF0
:10317000972AEFE06FFA08C019C5B7C5000093851C
:103180000580EFE0DFFBEFE00FCE6FD00FBBEFD29B
:103190008FB84CC108C9AA876362B602184D158E54
:1031A0000545637BE60093854700B707002003A52C
:1031B000472BEFE0AFD301456FD02FB86375D60032
:1031C0000545E3FBD5FE93854700B707002003A51F
:1031D000072BC5B7EFD22FB42A84AE8432890C4CAA
:1031E000A6864A86A69522855D3719E16FD0EFB491
:1031F0001C4C2285BE941C508297D5B7EFD2AFB13C
:10320000B707002083A7072B4111AA84DC472EC6ED
:10321000C04713054400EFE04FD083478402324695
:1032200013F7470011CBA68522856D371C502285E8
:10323000829741016FD06FB0F99B2304F402FDB770
:10324000EFD26FAD370400209306042B98421C4345
:1032500091EBB70700209387472B904398C390C208
:103260006FD0AFAD5C47FD558843493FF1BFEFD20A
:103270000FA82D694111B70A0020B7090020370BAC
:103280000020B70B00201309C97D83A70A2B9843A0
:1032900029CBDC47814C03AC0700EFF02FC2EFF0E5
:1032A000EFC283A7892B2A849384892B130ACB2B03
:1032B000636CF50288C063800C0483A74B2B90439A
:1032C0001336160003250A00B3058C40EFE0FFED2E
:1032D000EFF02FDB19EDB7E700E0116723A0E7203F
:1032E00009A8854C014C55BFEFF09FF580C0EFF069
:1032F0004FD9214C0DA00146E36685FDEFF06FD854
:10330000A2856285EFF09FEFEDB79247B2458297B5
:10331000824763DD070003250A0001468A85EFE046
:103320005FAA25D582472245E3C107FE22445C48B7
:103330009DE3EFF0AFB99C40AA8C6374F500EFF009
:103340003FF0824723A09401FD17E366FCFC8A0747
:10335000CA979C43828713054400EFE00FBCD1BF9E
:10336000834784020C4C924693E717002304F4022F
:103370006686B6952285EFF09FE151DD8347840292
:1033800013F7470001CF1C4C924566862285BE95F7
:10339000EFF05FE41C5022858297B5BFF99B2304B0
:1033A000F402CDBF83478402F99B2304F402A5B73E
:1033B00083478402924593E717002304F4020CCC60
:1033C0009DE1A167938707807390073037C600009F
:1033D00037B5000013068680930590351305455BCD
:1033E000EF30501401A0E6866686E6952285EFF060
:1033F0001FDA15B78347840213F7270055F7228594
:10340000EFE02F8E09BFEFD20F91EFF0FFD1B7079A
:10341000002083A7C72B9DE3A16793870780739044
:10342000073037C6000037B50000130686809305C5
:1034300090111305455BEF30F00E01A0B707002097
:10344000B7C50000373500009387072C3947814600
:10345000130600109385C58A1305E526EFE03FEEBD
:1034600045DD6FD08F8DEFD20F8BAA8411657971F6
:1034700085451105EF00101C93070020FC823714CE
:1034800001408D473ECC4C08E147130504803ECEF9
:10349000712593070040FC824C0891471305048076
:1034A0003ECE374401409D2DB7070C000C1013058C
:1034B00004803ED426D002D223160102EF005058D9
:1034C00013050480054693055052EF0090640546AD
:1034D0009305404213050480EF00B0639307501337
:1034E0007C8685475C87680085473EC8EF00607131
:1034F000854513050480EF00706045616FD0EF8350
:10350000011122CE37440140930550521305048027
:1035100002C4EF00D06505C113050480EF005063BD
:10352000B7070020C88303A5872C81463000930588
:103530007100EFE04FE63744014093054042130528
:103540000480EF00D0621DC1835704802C00C207A5
:10355000C1833EC683574480C207C1833EC6B2477B
:10356000B707002003A5C72CEFE06FF537440140F3
:10357000A14513050480EF00305E11C913050480D6
:10358000EF00105DA14513050480EF00905DA24798
:1035900091C7B7E700E0116723A0E72072440561F7
:1035A00073002030EFC23FF70D4681450545EFE03F
:1035B000AFB6B707002023A6A72C19E537C5000032
:1035C0001305458BEF30B0070146854513050020F4
:1035D000EFE08FB4B707002023A4A72C19E537C567
:1035E00000001305458DEF3090056FC01FF5EFC249
:1035F000FFF03704002083270425AE8A328A8DE34A
:103600008144B749014001499389098063494903CD
:1036100089C403250425EFE0CFD252856FC05FF146
:10362000EFF03F878947E31DF5FC0325042593054B
:10363000803EEFE05FAB7D1593341500D9B793055D
:1036400000044E85EF0050517DD9B3872A01838550
:1036500007004E850509C205C181EF00F04E7DB718
:10366000EFC27FEB7971AA8485452145EF00807C0C
:10367000854537050400EF00C07D930700403714EF
:103680000140FC828D47130504C03ECC4C08E14745
:103690003ECE6921856793870780130504C0FC82AD
:1036A0004C0891473ECE9D2937550040B7070C0086
:1036B0000C1013050580370400203ED426D002D21A
:1036C000231601021304442CEF0090371C4081EBB9
:1036D0000146854513050008EFE00FA408C03754E4
:1036E000004005469305505213050480EF007042D8
:1036F000930770237C8689475C87680085473EC8AE
:103700000923854513050480EF00503F45616FC0D4
:10371000DFE2011122CE37540040930550521305C9
:10372000048002C6EF00B0440DC113050480EF0011
:103730003042B7070020C88503A5472C19C581462C
:1037400070009305B100EFE00FC537540040A1456C
:1037500013050480EF00504011C913050480EF00E9
:10376000303FA14513050480EF00B03FB24791C739
:10377000B7E700E0116723A0E720724405617300FA
:103780002030B70700202398A72C4157B7E700E067
:103790002387E7402386E740B7F700E023A0070030
:1037A00023A20700814694C70147D8C783A5C180DB
:1037B0001307803E814633D6E5027D4790CBD4CBBC
:1037C00098C38280B7F600E0984ADC4A37F800E0F8
:1037D000B707002083D7072DBA8598463385A702FF
:1037E000DC468147032688008326C800E30CC7FE19
:1037F000BA976377E600918F3287E3E5A7FE828070
:10380000AE97D5BFEFC23FD1AA8401446364940050
:103810006FC0BFD21305803EEFF0DFFA0504FDB79D
:1038200001A001A001A001A001A001A001A001A090
:1038300001A001A001A001A001A001A001A001A080
:1038400001A001A001A001A001A001A001A001A070
:1038500001A001A001A001A001A001A001A001A060
:1038600001A001A001A001A001A001A001A001A050
:1038700001A001A001A001A001A001A001A001A040
:1038800001A001A001A001A001A001A001A001A030
:1038900001A001A001A001A001A001A001A001A020
:1038A00001A001A001A001A001A001A001A001A010
:1038B00001A001A001A001A001A001A001A001A000
:1038C00001A001A001A001A001A001A001A001A0F0
:1038D00001A001A001A001A001A001A001A097D119
:1038E000FF1F9381211017C100201301A17117A59B
:1038F00000001305652C97C5FF1F9385A5701386DF
:10390000818363FAC5008322050023A055001105B9
:103910009105E3EAC5FE17D5FF1F130525909755BE
:103920000020938565616377B500232005001105AC
:10393000E36DB5FEFD42739002BCFD427390428080
:10394000B78200009382028073A0023097C2FFFF0B
:103950009382C26E93E2320073905230EFD0FF8AAE
:1039600097E2FFFF938282857390123473002030B8
:10397000EFC27FBAB727014093870740631CF50069
:10398000854513050020ED21814513050020CD213B
:103990006FC0BFBAB737014093870780E31AF5FEBF
:1039A000854513050040E921814513050040C5B751
:1039B0005C413707F1E01307F7EF944D7D8F9C4191
:1039C000D58FD44DD58FD441A206D58FD98F5CC168
:1039D0001C4537F7F1FF1307D77FD4457D8F9C49EE
:1039E000D58F94458606D58FD98F1CC55C55370772
:1039F00010FF7D177D8FDC29FD1793F7F70FD20796
:103A0000D98F5CD582801C4589C593E717001CC5FA
:103A10008280F99BEDBF1C4593E787001CC582801F
:103A200008450D81058982801C4593E747001CC528
:103A3000828008450981058982801C4591C5370728
:103A40005000D98F1CC582803707B0FF7D17F98FD2
:103A5000D5BFA54763F7B7048D47138765FF3307C5
:103A6000F7020328C5009D47B397E70093C7F7FF08
:103A7000B3F70701B396E600DD8E54C5994763E3BB
:103A8000C70495477D163306F6025859FD47B3978C
:103A9000C70093C7F7FFF98F3396C5005D8E50D9E5
:103AA00082800D473387E502032805019D47B397C0
:103AB000E70093C7F7FFB3F70701B396E600DD8E83
:103AC00014C96DBFB14763E2C70295476516330657
:103AD000F6021859FD47B397C70093C7F7FFF98F50
:103AE0003396C5005D8E10D9828095474D163306FA
:103AF000F6025855FD47B397C70093C7F7FFF98FF4
:103B0000B395C500DD8D4CD5828068454205418165
:103B1000828008416D8D3335A00082809C4513F76B
:103B2000070113F8F70001C7D8413368E8008E2178
:103B300013F7F50F39C318418146854E3D4F930F5A
:103B4000800293028004214E3396DE00B3F8C50054
:103B5000631116039398260033131F011343F3FFD9
:103B60003377E300B318180133E7E800639FF705E4
:103B700050C98506E39AC6FD18C11307F00F637597
:103B8000B70454412146854E3D4F930F8002930266
:103B90008004414EB398CE0033F715016392E802DA
:103BA0001317260001173313EF001343F3FFB37607
:103BB000D3003317E800D98E639DF701232A15013E
:103BC0000506E319C6FD54C18280E39457FA10C973
:103BD0004DB7E39757FE23281501DDB708456D8DD6
:103BE0003335A00082800CC982804CC9828019C202
:103BF0000CC982804CC98280B707002023AAA72C59
:103C00008280B70700209387472D9443182181E6CF
:103C10003C21920721A894430546639FC6023C219C
:103C2000103192076314D60093E707F8B7E600E077
:103C300093F7F70FBA962380F640854693575700BF
:103C40003397E6005441A5C2938707048A07B7E675
:103C500000E0B69798C382808C4389466391D50271
:103C600014313C216365D6008A06B6975DB793860A
:103C7000E6038A06B69793F7F70F920775B7904356
:103C80008D46631CD60014313C216364D600860641
:103C9000E9BF9386C6078606F1BF94439147E39E2A
:103CA000F6F81C31BDB7938707064DB7B71602402B
:103CB000DC4251777D17F98F5D8DC8C2828037173E
:103CC00002405C439146B18B6385D700A146638275
:103CD000D706B7177A00938707201CC13716024012
:103CE0005C4237070020130707009183BD8BBA970A
:103CF00094231C41B3D7D7005CC15442A1829D8A52
:103D0000BA969422B3D6D70014C55442AD829D8A88
:103D100036971823B3D7E7005CC5584239839376AA
:103D200037001387818136971823B3D7E7021CC960
:103D300082805C435843C166C983758FB7F6FF1F05
:103D400083A6C670BD8B89071396160163480600CB
:103D5000C54601466392D702C94739A88946638F91
:103D6000D702BD46638ED702C146638ED702C546D1
:103D700001466393D700C1471DEF37470240032731
:103D80000780418B05C737177A0013070720B30751
:103D9000F7021CC121D61C41858381B701466DBF46
:103DA0000546B547D1BF0146BD47F9B737173D00B6
:103DB00013070790E9BFB7150240D8559316F700CF
:103DC000D85563DF060411833D8B93061700371720
:103DD0007A00130707203357D70218C1D455A182A0
:103DE000BD8A8DE295463307D702058318C1371780
:103DF0000240585714413D8B050733D7E60218C1DE
:103E0000184171B785456394B600E546E9BFBD45E5
:103E10006396B600D1463387E602C9BF8906E5BF7F
:103E20003D8B9306170037177A0013070720335787
:103E3000D702F1B799C5371702401C4F5D8D08CFE7
:103E40008280B7170240984F1345F5FF798D88CFD0
:103E5000828099C5371702405C4F5D8D48CF8280C4
:103E6000B7170240D84F1345F5FF798DC8CF828030
:103E700099C5371702405C475D8D48C78280B717E8
:103E80000240D8471345F5FF798DC8C782801E21AF
:103E900037370140930607C0C207C1836300D504CA
:103EA000B7060040630CD502938606406308D5022E
:103EB000B7160040138606806302C502938606C0CB
:103EC000630ED50013070740630AE500375701402A
:103ED000930607C06304D5006316E500BA2193F783
:103EE000F7F8D98F37170040630CE5001307074038
:103EF0006308E50093F7F7CFFA21C207C183D98F92
:103F00001EA1DE215EB59E211EB5B7370140138785
:103F100007C0630EE50093870740630AF500B757B3
:103F20000140138707C06304E5006314F5009C2576
:103F30001EB985475EA982801E31922103D82500D3
:103F4000C207C183F99BC207C1831EB11E3156212E
:103F50001A2DC207C183420741831377C7F8518FD7
:103F60009225F59BC20633660601D18F3736014094
:103F7000130806C0C182630E050113060640630ADA
:103F8000C50037560140130806C0630405016310DD
:103F9000C502B225DD9B03D8E500D18FD221ED9B70
:103FA00093F6F6CFD18FD22533660601D18E56A176
:103FB0001AADFA215AB91EB182801E3165771307F6
:103FC000F7CFC207C183BD9BC207C1831EB11E319B
:103FD000562103D88500C20713960601162DC1830A
:103FE00093F7F7FD758F96214182A206558FB62172
:103FF00042074183B3E606019206D58FB7360140EA
:10400000C207138806C0C183630E0501938606406C
:10401000630AD500B7560140138806C06304050142
:10402000631ED502B62593F7F7F703D8C5009206AD
:10403000D58FD621C207C183920693F7F7FBD58FA0
:10404000FD769386F63FF18EF225C207C183336673
:1040500006010A06D18E13960601418252A11AADBD
:10406000FA211ABD1EB182801E3103D88500C20715
:10407000C18393F7F7EFC207C1831EB11E315621EA
:104080005A2DC207139606014207962141831377E2
:10409000C7F8558FB621C18393F7F7DFB3E6060162
:1040A000A206D58FB7360140C207138806C04182E9
:1040B000C183630E050193860640630AD500B75697
:1040C0000140138806C063040501631FD502FD7615
:1040D0009386F67FF58FB62503D8C500A206D58F47
:1040E000D621C207C183A20693F7F7BFD58FF57615
:1040F000FD16F18EF225C207C18333660601120652
:10410000D18E13960601418252A15AADFA215ABDB1
:104110001EB182801A31FD77FD17F98F1EB1035849
:10412000050256215E2D6577139606019621130729
:10413000F7CF7D8FF977A206FD17558FB3F70701EB
:10414000B62103D8850042074182B3E60601B206D4
:10415000D58FB7360140C207138806C04183C1839B
:10416000630E050193860640630AD500B7560140E9
:10417000138806C063040501631BD500F176FD16A4
:10418000F18ED2251A06D18E13960601418252A1D4
:104190005AADFA212310E5041EB1828023100500D8
:1041A0002311050023120500231305002314050025
:1041B00023150500231605002317050082801E2104
:1041C00089C593E717001EA18280C207C183F99BAE
:1041D000C207C183CDBF1E25C207C183E19BC207B1
:1041E000C1831EA582801E2DC207C183DD9BDD8D8C
:1041F0000EAD82801A2DFD779387F77FF98FA20588
:10420000CD8FC207C1831EAD82805E2DC207C183E0
:10421000DD9BDD8D4EAD82805A2DFD779387F77F34
:10422000F98FA205CD8FC207C1835EAD82804EB9E2
:1042300082800EBD82804EBD82802310B5048280B4
:10424000EFC26FAD1629F577FD17F58FF621DA2548
:104250007971D58F1EA95625FD779387379FF58FE6
:10426000D6212A842EC6D58F9625D58FB625D58FF3
:104270005EA55E29C207C18393F7F7CFD98F5EA9E8
:104280006808EFF0DFA3B747014093870780B24586
:10429000631AF404A25756246547B387E702C2069F
:1042A000C186984163D20604060752244206B3D75A
:1042B000E702130740064186B3D6E702B3F7E702E9
:1042C0009206635506028E0793872703B3D7E7024A
:1042D00013F77700B367D700C207C1831EA44561F7
:1042E0006FC0AFA5925745BF0A07C1B79207938722
:1042F0002703B3D7E702BD8BD58FF9BF91C55E25E4
:104300000967D98F5EA582805A25F977FD17F98F45
:10431000D5BF13F7F50F85471583B395B70063191C
:10432000F7009307C500984301CED98D8CC38280D6
:10433000894693074501E318D7FE93070501E5B7C2
:1043400093C5F5FFF98DDDB793F5F51F4EA182807A
:104350004A211375F51F82800A216D8D3335A00027
:10436000828093C5F5FFC205C1810EA1828013F73B
:10437000F50F85461583B397B6006311D7025A250A
:10438000F98F1A2101454207418381CB0545A1815F
:10439000B315B5006D8F3335E00082808946631414
:1043A000D7001A29F1BF5A29E1BFEFC2CF96797120
:1043B00085450945EFF0FFA985453145EFF09FA7F9
:1043C000B7140140E1470D443ECE4C089307000C62
:1043D00013850480FC8222CCEFF04FF44C08138547
:1043E00004C0E08222CC37040040EFF02FF3130525
:1043F0000440EFF05FDE9307F0082C003EC4130585
:1044000004409307F07C3EC623080100EFF03FA86C
:104410000810EFF0BFD8C167938707060C1013058B
:1044200004403ED02314010223130102EFF0DFB059
:104430000C1013050440EFF05FB80C101305044096
:10444000EFF09FC20C1013050440EFF0BFCC130532
:104450000440A145EFF03FD913050440A145EFF01A
:104460007FD913050440A145EFF03FDA130504405E
:10447000A145EFF07FDA854513050440EFF03FD406
:1044800045616FC08F8BEFC20F89AA853705004049
:1044900013050540EFF0BFD96FC02F8AEFC2AF8779
:1044A000AA853705004013050540EFF09FD86FC07F
:1044B000CF88EFC24F86AA85370500401305054017
:1044C000EFF07FD76FC06F87EFC2EF84AA85370503
:1044D000004013050540EFF05FD66FC00F86EFC2B6
:1044E0008F83EFF09FEC6FC04F85EFC2CF82B7C7CD
:1044F000000083A5078FEF10E06AB7C7000083A50F
:10450000478FEF101015B7C7000083A5878FEF10F6
:10451000C032EF10103D42054181EFF0DFF66FC071
:10452000CF81EFB25FFFB7C7000083A5078FEF1001
:104530006067B7C7000083A5478FEF109011B7C71A
:10454000000083A5878FEF10402FEF1090394205B0
:104550004181EFF0BFF46FB05FFEEFB2DFFBB7C792
:10456000000083A5078FEF10E063B7C7000083A5A5
:10457000478FEF10100EB7C7000083A5878FEF108D
:10458000C02BEF10103642054181EFF09FF26FB063
:10459000DFFAEFB25FF8B7C7000083A5078FEF100F
:1045A0006060B7C7000083A5478FEF10900AB7C7B8
:1045B000000083A5878FEF104028EF10903242054E
:1045C0004181EFF07FF06FB05FF7EFB2DFF40945A4
:1045D000EFF04F9F6FB07FF6EFB2FFF3930500024D
:1045E00037150140EFF02FE0C14537150140EFF0DE
:1045F0008FDFEFF09FFD9305000237150140EFF0CC
:10460000CFDEEFF09FFCC14537150140EFF0EFDD45
:10461000EFF0BFFB6FB07FF2EFB2FFEF9305000248
:1046200037150140EFF06FDCC14537150140EFF061
:104630008FDBEFF09FF99305000237150140EFF093
:104640008FDA6FB09FEFEFB21FED930500023715C1
:104650000140EFF04FD9EFF05FF7C145371501404A
:10466000EFF06FD8EFF07FF6C14537150140EFF05E
:10467000CFD7EFF09FF56FB05FECEFB2DFE9AA8420
:10468000214493978401E187930500023715014087
:1046900063DB0702EFF02FD5EFF03FF3C14537158D
:1046A0000140EFF04FD47D14EFF03FF2C1453715D4
:1046B000014086041374F40FEFF02FD393F4F40F3A
:1046C00069F06FB09FE7EFF04FD2F9B7EFB2BFE4F8
:1046D00041112EC62A84EFF03FF013058007EFF05A
:1046E000DFF9EFF05FF6B2451305000491E10145F3
:1046F000EFF0BFF8EFF03FF52285EFF01FF8EFF095
:104700009FF4EFF07FF141016FB03FE3EFB21FDFA5
:10471000B7940020938404AB1304000B930A0008A1
:10472000130A800B81452285EFF05FFA8145094528
:10473000EFF0DFF981454145EFF05FF9EFF0DFE998
:1047400013058007EFF07FF3EFF0FFEF1305000490
:10475000EFF0BFF2A689EFF01FEF014903C5090092
:1047600005091379F90FEFF05FF1A109EFF0BFED43
:10477000E31659FF05041374F40FEFF0FFE9850405
:10478000E31244FB6FB0DFDAEFB2FFD837960020B8
:104790000147130606AB930500082145B306E60062
:1047A000814785072380060093F7F70FA106E39A58
:1047B000B7FE0507E314A7FEEFF05FF56FB0FFD774
:1047C00013F775008547B397E700379700200E056C
:1047D000130707AB2A978D81BA9593F7F70F9821A6
:1047E00001C6D98F9CA1828093C7F7FFF98FDDBFE7
:1047F000EFB27FCF93D7160001113EC4A147AA8D17
:104800002E8C36891944638FF60013F4760093D703
:104810003600333480003E9493D7160033848702E9
:104820001374F40F930406FE93F4F40F130A40027A
:10483000B38744031946B14A316BB16B6E8D814C1D
:10484000130B8B58938B8BF93EC6939744003EC84D
:10485000B387C402B38A54033ECA933717003ECCD1
:1048600013F6FC0F6365860005616FB09FCB214690
:104870006312C906D247B1659385C58F3386FC00A4
:104880002E96034A060093098C0093F9F90FE284EF
:1048900013761A002DCA3A863ACEA6856A85EFF0BD
:1048A0003FF2138814009374F80F7247135A1A00DA
:1048B000E39099FE93071D00214613FDF70F63094E
:1048C000C900A2473306BD416314F6004E8C6E8DBD
:1048D000850C79B731466318C900B167138647B2B2
:1048E000B3855C0171BF41466317C900C247338677
:1048F000FC005E9679B76146E318C9F6B247338685
:10490000FC005A96BDBF3ACE624641BFEFB23FBEF1
:104910002A84AE8AB28436893A8B13DA1600930958
:10492000E005A14B9020930706FE93F7F70F63F481
:10493000F9006FB05FBF5A87CA86D6852285EFF02F
:104940003FEB6317790119041374F40F8504D9BF81
:104950005294DDBFEFB2BFB93E8BA147AA842E8A25
:10496000B28A3A8C09496303F700014993571C0046
:10497000FD163E9913F4F60F9309F00FA94B631F30
:1049800034036FB05FBA33067603FD1793F7F70F62
:10499000E39B37FF5A87E28633D6CA023376760323
:1049A0000DE2130600032685D285CA947D14EFF02C
:1049B0003FE493F4F40F1374F40FD1B7A2870546C4
:1049C000E9B713060603C5B7EFB2FFB48545214525
:1049D000EFF04FC681451305E00AEFF03FCF814568
:1049E0000145EFF0BFCE81454145EFF03FCE814517
:1049F00013050004EFF09FCD814513051008EFF07B
:104A0000FFCC81451305F00CEFF05FCC8145130519
:104A1000100AEFF0BFCB81451305800CEFF01FCBE0
:104A200081451305600AEFF07FCA81451305800AAE
:104A3000EFF0DFC981451305F003EFF03FC9814571
:104A40001305300DEFF09FC881450145EFF01FC8F9
:104A500081451305500DEFF07FC781451305000810
:104A6000EFF0DFC681451305900DEFF03FC681459D
:104A70001305100FEFF09FC581451305A00DEFF052
:104A8000FFC481454945EFF07FC481451305B00D52
:104A9000EFF0DFC3814513050004EFF03FC381450C
:104AA00013050002EFF09FC281450945EFF01FC2D8
:104AB00081451305D00AEFF07FC181451305B00889
:104AC000EFF0DFC081451305400AEFF03FC081459C
:104AD0001305600AEFF09FBFEFF01FCB8145130570
:104AE000F00AEFF0BFBE6FB05FA5EFB2DFA24111D9
:104AF000854513050003EFF0EFB3C1473EC6896754
:104B0000938707407C824C008D473715014037144E
:104B100001403EC4EFF08F80930700804C001305E6
:104B200004407C82C164EFE07FFF938504800146EE
:104B300013050440EFF0AF8B1305007DEFE09FCC31
:104B400093850480054613050440EFF04F8A130552
:104B5000007DEFE03FCB01469385048013050440C0
:104B6000EFF0EF8841016FB05F9DEFB2DF9A411126
:104B700085454145EFF00FAC930700037C828D47DC
:104B80003EC44C00D147371501403EC6EFE01FF947
:104B9000C14537150140EFF00F8593050002371529
:104BA0000140EFF04F841305401FEFE0BFC5410106
:104BB0006FB0BF98EFB23F961547239EE180EFF0AC
:104BC000DFFA6FB09F97EFB21F9529447D1413054C
:104BD000803E1374F40FEFE0FFC26DF86FB0FF95E5
:104BE000EFB27F9341118545114502C202C402C64E
:104BF000EFF04FA4C147371401403EC685477C8281
:104C00004C008D47130504803EC4EFE03FF105469C
:104C1000854513050480EFE09FFD1305803EEFE01E
:104C20007FBE1305803EEFE0FFBD014685451305BD
:104C30000480EFE0DFFB1305803EEFE0BFBC13050F
:104C4000803EEFE03FBC0546854513050480EFE05C
:104C50001FFA41016FB07F8EEFB2FF8B3704002047
:104C60001304C42D1C4099E7014685452145EFC03A
:104C7000BFCA08C0370400201304842D1C4089E7F4
:104C80000545EFC07FE908C0138441911C4099E7B6
:104C90000D4681450545EFC03FC808C06FB0FF898C
:104CA000EFB27F872A8403A5419111C58145EFD0DA
:104CB000AFA723A881906FB05F88AA8503A5419113
:104CC0000DC5EFB25F859307803EB385F502B3D57E
:104CD000F502EFD06FA523A8019005478147630334
:104CE000E500F9573E856FB05F85FD573E858280B0
:104CF00083A501918DC105C1EFB2FF81EF20C020D6
:104D000009C903A5419111C5814601468145EFC0FE
:104D1000DFC76FB09F828280EFB26FFD4111FD54FB
:104D200051C1B7090020138CC92D83270C0093892A
:104D3000C92DFD54A5CB37090020930A892D03A75F
:104D40000A001309892D39CF2E8A9305803E33043A
:104D5000B602B7A70700938707122A8B3A85F95442
:104D6000A297B3D5B702EFD02F9C8547AA8B631BC0
:104D7000F50203250C008145EFC05FAEB7070020A8
:104D800003A50725BE841DC19305803EEFD0AFB5B6
:104D9000630E750103A50A00814601468145EFC0F7
:104DA000DFBEF554268541016FB0EFF737B500003F
:104DB000DA8513050542EF10F07603A5042519C125
:104DC000EFC03FD8EFD09F901306803E3354C4020B
:104DD000854A137AFA0F2A94EFD05F8F3306A440E6
:104DE0006356C00203A509009305F100A307010063
:104DF000EFC03FFD631C55019C876302FA02F9175F
:104E000093F7F70FE3EAFAFCED5411A0F1540325F0
:104E10000900814601468145EFC03FB761B7814433
:104E2000FDB7EFB2AFED2A89AE89930416000144B5
:104E30004E8685454A85EFF03FEE09C91305C0123D
:104E40000504EFD0BFC7E31594FE7D556FB04FEE5C
:104E5000EFB26FEC37D500001306007D85451305D2
:104E6000053AEFF07FEB6FB04FEDEFB22FE937D59A
:104E70000000A9471389419015469305C05D1305AD
:104E8000053A2320F900EFF0DFF91384019011C5F2
:104E900085471CC07D556FB0AFE937D5000005468A
:104EA0009305C05D1305452EEFF0BFF737D5000021
:104EB00005469305C05D1305C52EEFF09FF637D567
:104EC000000005469305C05D1305452FEFF07FF503
:104ED000856937D50000F9470546938589BB1305D9
:104EE000C52F2320F900EFF0DFF309C589471CC067
:104EF000795555B7916537D500009307800205466F
:104F0000938585A9130505312320F900EFF07FF182
:104F100009C58D471CC07555BDBF35659307200376
:104F20000546938589BB1305453A2320F900EFF028
:104F30005FEF09C591471CC07155B1BF37D500005F
:104F4000938441909307C0031306007D85451305A4
:104F5000C5319CC0EFF05FDC11C937D500001306E6
:104F6000007D85451305C532EFF01FDB37D5000006
:104F700093071004130585339CC0EFF07FD285653D
:104F800037D5000005469385853813054534EFF085
:104F90005FE901C90145EFF05FD295471CC06D552F
:104FA000DDBD156593073004130505E29CC0EFF0E5
:104FB000DFD065F5896537D50000930760040546A5
:104FC000938505711305C5389CC0EFF09FE509C5B1
:104FD00099471CC06955C1B5232004006DBDEFB2CF
:104FE0008FD3056937D500009307B00493844190AF
:104FF0000546930589BB130505449CC0EFF07FE28D
:105000001384019011C59D471CC07D556FB0EFD230
:1050100037D50000930700050546930589BB1305A6
:1050200085489CC0EFF0FFDF09C5A1471CC079553A
:10503000F1BF9307A0059CC023200400C1BFEFB2BD
:105040008FCDB707002083D7C72337070020370647
:1050500000200327471EC20783A681800326061E61
:10506000C18393054006130101D79308400663E30B
:10507000F500BE88B327C0003EC4B327D0003EC2AF
:10508000B327E0003EC003A8419283A7819203A703
:10509000819483A60194C20837D6000093D80801F2
:1050A0001306C64C930500280808EF10105A056631
:1050B000938741901307F005130686388545080845
:1050C00098C3EFF07FC5138441909387019019ED49
:1050D0001387C1901443850614C323A007009307C8
:1050E000A0051CC0130101296FB02FC51387819043
:1050F0001443850614C3514798C3D5B7EFB2AFC167
:105100003714014093050008130504C0EFE0BFAD5C
:105110002945EFE02FEB93050004130504C0EFE0F1
:105120009FAC2945EFE00FEA93050008130504C082
:10513000EFE0BFAB2945EFE0EFE89305000413056E
:1051400004C0EFE09FAA2945EFE0CFE76FB0EFBEC4
:10515000EFB26FBC3714014093050008130504C07B
:10516000EFE0BFA82945EFE0EFE593050004130544
:1051700004C0EFE05FA72945EFE0CFE49305000806
:10518000130504C0EFE03FA62945EFE0AFE36FB0A1
:10519000CFBAEFB2AFB6AA84371501409305000429
:1051A000130505C0B7190140EFE03FA4214413895E
:1051B00009C093978401E187930500084A8563D469
:1051C0000708EFE05FA22945EFE0CFDF9305000479
:1051D0004A85EFE05FA12945EFE0CFDE93050004AB
:1051E0004A85EFE09FA07D14860429451374F40FCF
:1051F00093F4F40FEFE00FDD4DFC930500081385E9
:1052000009C0EFE05F9E2945EFE0CFDB138509C0C1
:1052100093050004EFE03F9D294537190140EFE079
:105220006FDA1304B00F930909C0930500084E8587
:10523000EFE0DF9AAA8419E993050004130509C079
:10524000EFE0BF9A19A8EFE05F9AB5BF7D14137421
:10525000F40F61FCEFF0DFEF854426856FB04FADB2
:10526000EFB2EFA8AA8A2E8BEFF05FE913050007D3
:10527000EFF03FF201C57D556FB0EFAAEFF07FF17F
:105280007DF9EFF0BFE713051007EFF09FF065F52C
:1052900037140140130404C08149938BFAFF22891B
:1052A000930500082285EFE01F94930500042285F2
:1052B000EFE0BF938144214A930500042285EFE08B
:1052C0009F922945EFE00FD08604930500082285C0
:1052D00093F4F40FEFE09F9019C193E41400930549
:1052E00000042285EFE07F907D1A2945137AFA0F9A
:1052F000EFE04FCDE3120AFC930500084A8563D125
:105300007905EFE09F8E2945EFE0CFCB93050004B0
:105310004A85EFE05F8D2945EFE0CFCA9305000491
:105320004A85EFE09F8C2945EFE0CFC9B3073B01E9
:1053300084A38509E39659F7EFF09FE101452DBF5E
:10534000EFE07F8AC9B7EFB20F9D2A89AE8432841D
:10535000EFF0DFDA13050007EFF0BFE301C57D557D
:105360006FB0AF9D4A85EFF0DFE275F9A2946396C6
:105370008400EFF0FFDD0145E5B708200504EFF0FC
:105380005FE175D5E9BFEFB20F9941119305F100C7
:105390000545EFF0FFEC888741016FB00F9AEFB23F
:1053A0008F97EFF05FFE13758506611513351500B5
:1053B0006FB0AF98EFB22F960111930730035008EA
:1053C00089452A841305C00AFC82EFF0DFF7130534
:1053D000B004EFD0AFEE93045006EFF0DFFA6205B1
:1053E000618563590500FD14C2040545C180EFD0F5
:1053F000EFECE5F42C001D45EFF09FE618859C844A
:1054000022075D8F931787002183D98FC207988564
:10541000C183A207D98F91831CC01C862207D98F14
:10542000139787009C86D98FB207B1835CC0056152
:105430006FB0AF90EFB22F8E411185452145EFE05F
:105440007F9F9307000C371401407C82D1471305DE
:1054500004C03EC64C008D473EC4EFE02FEC130560
:1054600004C093050004EFE00FF89305000813054E
:1054700004C0EFE04FF70945EFE0CFB81305800215
:10548000EFE04FB8A147500089451305E00B7C823F
:10549000EFF07FEB1305401FEFE0CFB62549238CDB
:1054A000019013848191EFF09FEFAA8411C5854488
:1054B000268541016FB06F88500081451305A00B10
:1054C000EFF07FE81305800CEFE0CFB35000894583
:1054D0001305E00BEFF03FE71C20850793F7F70F6C
:1054E0001CA0E367F9FC1305401FEFE0AFB165BFF7
:1054F000EFB26F827971854513054021EFE09F93EC
:105500002165EFE0AFFA37150140930780034C00A7
:10551000130505807C8202C6EFE04FE0BD474C00DA
:1055200037150140372401407C8202C6EFE00FDFCF
:1055300013050440EFE0CFC3B7070E003ECE0C08C2
:10554000A547130504402302F10202C802CA02CC97
:1055500002D0EFE0EFC5854513050440EFE0AFCA88
:1055600013050440EFE02FCB930404402685EFE0C1
:105570002FCB6DFD1305044037240140EFE0CFCA67
:10558000130404402285EFE0CFCA6DFD45616FA092
:10559000DFFAEFA25FF837240140AA859D46054651
:1055A00013050440EFE0EFCA854513050440EFE022
:1055B000CFC89304044089452685EFE08FD565DD8B
:1055C00013050440EFE06FD46FA03FF7EFA2BFF4E4
:1055D00041112A89014481446319B40033D58402FE
:1055E0004101420541816FA05FF54A852EC6EFF06B
:1055F0005FFAAA940945EFD06FCC05041374F40F39
:10560000B245D9BFEFA23FF11384C1911385C19177
:10561000EFF05FDA58409307007D1440B387E7024C
:1056200085450D4513846193D1839387C7E023A2F9
:10563000F1941307803E3307D702518323AEE192E2
:10564000A946B3C7D7023347D70223A4F19423A0B6
:10565000E194EFF0BFF72396A19285453145EFF035
:10566000FFF60AA085453545EFF05FF61A20239C2A
:10567000A192F5469387819263E6E60023A0070096
:105680006FA0BFEB9306800D63E5E600054798C366
:10569000C5BF9306B01D63E4E6000947CDBF93067E
:1056A000A03063E4E6000D47DDB79306304763E4BE
:1056B000E6001147E9BF9306706063E4E600154712
:1056C000F9B79306607C63E4E6001947C9B78566BD
:1056D0001386269A6364E6001D4755BF138696BA63
:1056E0006364E600214765B79386F6DB63E4E60072
:1056F000254771BF294761BFEFA2FFE185451145ED
:10570000EFF0DFEC1389E1922310A90085451545E0
:10571000EFF0DFEB938401938AA085452945EFF0F4
:10572000FFEA2399A19285452D45EFF03FEA835684
:1057300009009A20239AA19213892193938441937B
:105740009387418213840182637DD7089A236D1762
:105750009AA31A206D171AA0039707009306400614
:1057600063DAE60896A3031704009306D00763D90B
:10577000E60816A003950700EF00101CEFE0FFD627
:10578000031504001384E181EF00101BEFE0FFDC40
:10579000835609009A2093872182637BD7069A2338
:1057A00015079AA31A2015071AA003970700930656
:1057B000600463D8E60696A3031704009306000569
:1057C00063D7E60616A003950700EF00F016EFE09A
:1057D0005FD503150400EF003016EFE09FDB6FA0EC
:1057E000DFD5E3FBE6F6962303170400950696A3A0
:1057F000150795B7CD46E3C8E6F651479AA3A5B776
:105800009306C002E3C8E6F61307D0021AA09DB7BC
:10581000E3FDE6F8962303170400ED1696A36D1733
:1058200061B7CD46E3CAE6F851479AA371B7F5468A
:10583000E3CBE6F879471AA079B741113707800022
:105840007D1713D8750126C2935475013373A700D1
:1058500093F4F40FB376B7004AC01378F80F1359D6
:10586000F50106C622C4FD819A8726854A86131E45
:105870003300939E3600B3880441630AB90E635027
:10588000100D630408149307F00F638BF414B7072B
:105890000004B3EEFE00ED4763C117299307000231
:1058A000B3871741B397FE00B3D81E01B337F0009A
:1058B000B3E7F800B307FE4013975700635E07187D
:1058C000370400047D147D8C2285EF0050136D1584
:1058D000B317A4006348951A058D13041500130728
:1058E0000002018F3397E7003337E000B3D787001A
:1058F000D98F814413F7770019C713F7F700914642
:105900006303D700910713975700635B071485045F
:105910001307F00F4A866383E4169A07A58313F5ED
:10592000F40FB2402244A6079314750113D59700D3
:10593000458D7E0692440249518D410182806399D2
:10594000080A138714001377E70F6317071463908F
:105950000422630D0E1EE3860EFCB307DE4113978F
:10596000570063500722B387CE412E8961B7635C2D
:10597000100B630E08089307F00F6383F406B70754
:105980000004B3EEFE00ED4763C9171F9307000242
:10599000B3871741B397FE00B3D81E01B337F000A9
:1059A000B3E7F800F297139757006357070A850487
:1059B0001307F00F6384E40CB706007E13D71700BB
:1059C000FD16858B758FD98F35B7638D0E08FD1841
:1059D000B307DE41E38208EE9307F00FE39DF4EA9C
:1059E000630D030801461305F00FB707400015BF0C
:1059F00033079840EDE863020E147D17630807181B
:105A00009307F00F6319F80E2E893683D1BF638B8D
:105A10000E04FD18B307DE01E38708F89307F00FC3
:105A2000E393F4F675BF63950808850413F7E40F54
:105A30006313071263170510630F0E14E3830EEE52
:105A4000B307DE01139757008144635707003707F8
:105A500000FC7D17F98F854413F77700E31F07E8F3
:105A600013D337009307F00FE38CF4F693179300EA
:105A7000A58313F5F40F4A866DB54A861305F00F1A
:105A8000814745B5370700FC7D17F98F13F777007D
:105A9000898CE31407E6E9B73304DE419317540019
:105AA00063C3070CE31204E201460145814795BD3B
:105AB00033079840ADC49307F00FE308F8F4B70735
:105AC0000004336EFE00ED4763CCE70C9307000241
:105AD000998FB317FE003357EE00B337F000D98F1C
